:100000000C945E000C9486000C9486000C94860080
:100010000C9486000C9486000C9486000C941604B4
:100020000C9486000C9486000C9486000C94860038
:100030000C9486000C9486000C9486000C94860028
:100040000C94CA040C9486000C9498040C947204CA
:100050000C9486000C9486000C9486000C94860008
:100060000C9486000C9486000000000024002700F9
:100070002A0000000008000201000003040700003D
:10008000000000000000010204081020408001026E
:1000900004081020010204081020000000002500C0
:1000A00028002B00040404040404040402020202D5
:1000B00002020303030303030200140511241FBEFD
:1000C000CFEFD8E0DEBFCDBF11E0A0E0B1E0ECEBB8
:1000D000FFE002C005900D92A03AB107D9F722E0E7
:1000E000A0EAB1E001C01D92AF36B207E1F710E01F
:1000F000CEE5D0E004C02197FE010E94D607CD35A1
:10010000D107C9F70E945E050C94DC070C9400002F
:10011000AF92BF92CF92DF92EF92FF920F931F9315
:10012000CF93DF936C017B018B01040F151FEB0153
:100130005E01AE18BF08C017D10759F06991D6010A
:10014000ED91FC910190F081E02DC6010995892B7C
:1001500079F7C501DF91CF911F910F91FF90EF903B
:10016000DF90CF90BF90AF900895FC01538D448DE8
:10017000252F30E0842F90E0821B930B541710F052
:10018000CF96089501970895FC01918D828D98175F
:1001900061F0A28DAE0FBF2FB11D5D968C91928D37
:1001A0009F5F9F73928F90E008958FEF9FEF089568
:1001B000FC01918D828D981731F0828DE80FF11D31
:1001C000858D90E008958FEF9FEF0895FC01918D4C
:1001D000228D892F90E0805C9F4F821B91098F7345
:1001E000992708958AEB91E00E94E60021E0892B8F
:1001F00009F420E0822F089580E090E0892B29F017
:100200000E94F20081110C9400000895FC01A48D5D
:10021000A80FB92FB11DA35ABF4F2C91848D90E028
:1002200001968F739927848FA689B7892C93A0890B
:10023000B1898C91837080648C93938D848D981395
:1002400006C00288F389E02D80818F7D8083089528
:10025000EF92FF920F931F93CF93DF93EC0181E016
:10026000888F9B8D8C8D98131AC0E889F9898081BD
:1002700085FF15C09FB7F894EE89FF896083E889F0
:10028000F98980818370806480839FBF81E090E0E2
:10029000DF91CF911F910F91FF90EF900895F62E6F
:1002A0000B8D10E00F5F1F4F0F731127E02E8C8D09
:1002B0008E110CC00FB607FCFACFE889F98980814E
:1002C00085FFF5CFCE010E940601F1CFEB8DEC0F3B
:1002D000FD2FF11DE35AFF4FF0829FB7F8940B8F6B
:1002E000EA89FB8980818062CFCFCF93DF93EC01D5
:1002F000888D8823B9F0AA89BB89E889F9898C910E
:1003000085FD03C0808186FD0DC00FB607FCF7CFC9
:100310008C9185FFF2CF808185FFEDCFCE010E94C9
:100320000601E9CFDF91CF91089590E0FC01EE58EE
:10033000FF4F2491FC01EA57FF4F3491FC01EC552B
:10034000FF4FE491EE23C9F0222339F0233001F16D
:10035000A8F4213019F1223029F1F0E0EE0FFF1F4F
:10036000E656FF4FA591B4918FB7F894EC916111C7
:1003700026C030953E233C938FBF08952730A9F0C7
:100380002830C9F0243049F7809180008F7D03C068
:10039000809180008F7780938000DFCF84B58F7746
:1003A00084BDDBCF84B58F7DFBCF8091B0008F778C
:1003B0008093B000D2CF8091B0008F7DF9CF3E2BDB
:1003C000DACF9091000189130BC0E8EBF0E0E491E3
:1003D0009FEF90930001E13049F028F0E23061F0A6
:1003E00060E00C94950110926E00FACF90916F002E
:1003F0009D7F90936F00F4CF909170009D7F9093BC
:10040000700091E09093B0009091B100987F94605B
:100410009093B1001092B300E3CFCF93DF9390E0BD
:10042000FC01EA57FF4F24918C559F4FFC018491AA
:100430008823D1F090E0880F991FFC01E859FF4F05
:10044000A591B491FC01E656FF4FC591D49161117D
:100450000EC09FB7F8948C91E22FE0958E238C9379
:100460002881E223E8839FBFDF91CF9108958FB762
:10047000F894EC91E22BEC938FBFF6CF8E3008F01E
:100480008E508770806480937C0080917A008064B5
:1004900080937A0080917A0086FDFCCF809178006D
:1004A0009091790008953FB7F8948091A5019091BB
:1004B000A601A091A701B091A80126B5A89B05C0EF
:1004C0002F3F19F00196A11DB11D3FBFBA2FA92FD3
:1004D000982F8827BC01CD01620F711D811D911DD0
:1004E00042E0660F771F881F991F4A95D1F708953C
:1004F0008F929F92AF92BF92CF92DF92EF92FF9234
:100500004B015C010E9453026B017C010E9453026B
:100510006C197D098E099F09683E7340810591051C
:10052000A8F321E0821A9108A108B10888EEC80E4C
:1005300083E0D81EE11CF11C81149104A104B104D4
:1005400029F7FF90EF90DF90CF90BF90AF909F90F2
:100550008F900895089590E080E00895FC01019047
:100560000020E9F73197AF01481B590BBC0187E523
:1005700092E00C9488000C94AE02CF93DF93EC01D0
:1005800060E08E810E94950161E08E810E9495015C
:1005900060E08E810E9495018BE891E00197F1F770
:1005A000DF91CF910895CF92DF92EF92FF920F9358
:1005B0001F93CF93DF936C017C0187E0E80EF11C61
:1005C000D0E0C0E0062F10E0B8010C2E02C07595F7
:1005D00067950A94E2F76170F70181917F010E94AB
:1005E00095012196C430D10579F7C601DF91CF91ED
:1005F0001F910F91FF90EF90DF90CF900C94BD0270
:10060000CF92DF92EF92FF920F931F93CF93DF93DE
:10061000EC01F62E642F8C810E9495018D818F3F15
:1006200019F060E00E9495010F2D10E08F8584FF86
:1006300025C06E0187E0C80ED11CF12CE12CB80159
:100640000E2C02C0759567950A94E2F76170F60169
:1006500081916F010E949501FFEFEF1AFF0A88E078
:10066000E816F10461F7CE01DF91CF911F910F9150
:10067000FF90EF90DF90CF900C94BD02B80184E022
:10068000759567958A95E1F7CE010E94D3026F2D8B
:10069000CE01DF91CF911F910F91FF90EF90DF90EE
:1006A000CF900C94D30240E0682F87E592E00C9441
:1006B000000381E00E9453038BE39FE10197F1F770
:1006C0000895CF93DF93823029F490916602986069
:1006D0009093660280936A0210926B0280E480938A
:1006E0006C0280E180936D0280E580936E0261E090
:1006F00080915B020E940D0280915C028F3F19F095
:1007000061E00E940D0261E080915D020E940D0295
:10071000C7E5D2E09E01275532408091660284FDF4
:100720000BC084E090E021962817390744F461E07B
:100730008E810E940D02EECF88E090E0F4CF8BE333
:100740009DE00197F1F760E080915B020E949501C6
:1007500060E080915D020E94950180915C028F3F74
:1007600019F060E00E9495018091660284FD34C01A
:1007700063E087E592E00E94D302CBE4D6E4CE01A9
:100780000197F1F763E087E592E00E94D302219799
:10079000F1F763E087E592E00E94D30283E592E0FF
:1007A0000197F1F762E087E592E00E94D302809121
:1007B000660280620E94530384E0809367028CE0AB
:1007C0000E9453030E94590382E08093680286E0EE
:1007D000DF91CF910C94530380620E9453038BE40A
:1007E00096E40197F1F78091660280620E945303BC
:1007F00083E592E00197F1F78091660280620E94A2
:100800005303D5CF90916A02891710F08FEF890FAB
:10081000E82FF0E0E95AFD4F848980680C94530377
:1008200041E00E94000381E090E008951F920F9242
:100830000FB60F9211242F933F934F935F936F93B3
:100840007F938F939F93AF93BF93EF93FF93809189
:10085000AE019091AF01A091B001B091B101892B8F
:100860008A2B8B2BD1F19091A901E091AA01F091F3
:10087000AB018081892780838091AE019091AF0187
:10088000A091B001B091B101181619061A061B0605
:100890009CF48091AE019091AF01A091B001B09114
:1008A000B1010197A109B1098093AE019093AF0105
:1008B000A093B001B093B101FF91EF91BF91AF91BF
:1008C0009F918F917F916F915F914F913F912F9168
:1008D0000F900FBE0F901F901895809100010E94FD
:1008E000E101EACF1F920F920FB60F9211242F93BE
:1008F0003F934F935F936F937F938F939F93AF93A8
:10090000BF93EF93FF938AEB91E00E940601FF9162
:10091000EF91BF91AF919F918F917F916F915F9177
:100920004F913F912F910F900FBE0F901F901895F0
:100930001F920F920FB60F9211242F938F939F93B4
:10094000EF93FF93E091CA01F091CB018081E09198
:10095000D001F091D10182FD1BC090818091D30123
:100960008F5F8F732091D401821741F0E091D30102
:10097000F0E0E654FE4F958F8093D301FF91EF9105
:100980009F918F912F910F900FBE0F901F901895F0
:100990008081F4CF1F920F920FB60F9211242F93E4
:1009A0003F938F939F93AF93BF938091A1019091B9
:1009B000A201A091A301B091A4013091A00123E074
:1009C000230F2D3758F50196A11DB11D2093A001CD
:1009D0008093A1019093A201A093A301B093A401DD
:1009E0008091A5019091A601A091A701B091A801C5
:1009F0000196A11DB11D8093A5019093A601A0931E
:100A0000A701B093A801BF91AF919F918F913F91A2
:100A10002F910F900FBE0F901F90189526E8230F6F
:100A20000296A11DB11DD2CFEAEBF1E01382128232
:100A300088EE93E0A0E0B0E084839583A683B7833B
:100A400085E091E09183808385EC90E095878487B1
:100A500084EC90E09787868780EC90E0918B808B88
:100A600081EC90E0938B828B82EC90E0958B848B71
:100A700086EC90E0978B868B118E128E138E148EDF
:100A8000E7E5F2E01382128287E191E091838083AF
:100A900089E084838FEF858388E0868386E087837F
:100AA00085E0808784E0818783E0828713861486CF
:100AB00015861686178681E00C946103CF93DF9329
:100AC000CDB7DEB7A3970FB6F894DEBF0FBECDBF8C
:100AD000789484B5826084BD84B5816084BD85B519
:100AE000826085BD85B5816085BD80916E00816025
:100AF00080936E00109281008091810082608093CB
:100B000081008091810081608093810080918000CC
:100B10008160809380008091B10084608093B100F7
:100B20008091B00081608093B00080917A008460F1
:100B300080937A0080917A00826080937A0080911D
:100B40007A00816080937A0080917A008068809337
:100B50007A001092C10061E08CE00E940D0261E019
:100B60008BE00E940D0261E08AE00E940D0260E0CD
:100B700083E10E940D02E091CA01F091CB0182E075
:100B80008083E091C601F091C7011082E091C80115
:100B9000F091C9018FEC80831092D201E091CE01D7
:100BA000F091CF0186E08083E091CC01F091CD01FE
:100BB000808180618083E091CC01F091CD018081C2
:100BC00088608083E091CC01F091CD0180818068C4
:100BD0008083E091CC01F091CD0180818F7D808375
:100BE00082E00E9461030E94590380E00E94020497
:100BF0008FE191E00E94BB0268EE73E080E090E03C
:100C00000E9478020E94590380E00E9402048DE253
:100C100091E00E94BB0281E00E9402048DE391E01A
:100C20000E94BB0260ED77E080E090E00E947802D5
:100C30000E94590383E10E943E02813991400CF4E5
:100C40009CC080E00E94020489E491E00E94BB0203
:100C500081E00E94020485E591E00E94BB0260EA07
:100C60007FE080E090E00E9478020E9459033AE021
:100C7000432E512C612C712C4EEA242E40E0342E50
:100C800050E9C52EDD24D394E12CF12C83E10E94A0
:100C90003E029BA38AA380E00E9402048FE691E0BB
:100CA0000E94BB028AA19BA14C01990FAA08BB0814
:100CB000B7FE70C041E06DE287E592E00E9400035C
:100CC00022273327A901281939094A095B0919A2E2
:100CD0008E010F5D1F4FCA01B901A30192010E944D
:100CE000B407605DF80162938F012115310541055C
:100CF000510589F70115110519F0C8010E94AE02CE
:100D00008CE791E00E94AE028AA19BA181399140BB
:100D10000CF419C161E08CE00E94950160E08BE069
:100D20000E949501809100018A3009F049C0E8EBEA
:100D3000F0E0149117FDE5C061E08AE00E940D0229
:100D4000112309F4AFC0123009F0C0C08091B10086
:100D5000887F83608093B10089EF8093B300C09255
:100D6000AE01D092AF01E092B001F092B10180915A
:100D70007000826080937000C4C080E00E94020412
:100D800089E491E00E94BB0281E00E94020483E6B4
:100D900091E063CFA501940119A28E010F5D1F4F51
:100DA000CA01B901A30192010E94B407605DF80174
:100DB00062938F01211531054105510589F79ACFBD
:100DC0008F3F09F09EC08AE080930001E8EBF0E0DD
:100DD00014911F3F09F495C0113021F150F01230E9
:100DE00009F43EC017FD8DC061E08AE00E940D024B
:100DF000AACF14BC15BC84B5826084BD85B5816062
:100E000085BDF1018491E82FF0E0EE0FFF1FE6565B
:100E1000FF4F85919491E0E9F0E084918093AD01DA
:100E200010E08ACF109280001092810080918100A2
:100E3000886080938100809181008160809381002F
:100E4000F1018491E82FF0E0EE0FFF1FE656FF4F0F
:100E500085919491E0E9F0E084918093AC016CCFAE
:100E60001092B0001092B1008091B0008260809327
:100E7000B0008091B10081608093B100F101849154
:100E8000E82FF0E0EE0FFF1FE656FF4F859194919B
:100E90009093AB018093AA01E0E9F0E08491809304
:100EA000A9014ACF85B5887F836085BD8CE787BD62
:100EB000C092B601D092B701E092B801F092B901A8
:100EC00080916E00826080936E001BC0113099F596
:100ED00080918100887F8160809381008FE39FE112
:100EE0009093890080938800C092B201D092B301A0
:100EF000E092B401F092B50180916F00826080931E
:100F00006F0081E00E9402048FE791E00E94BB0223
:100F100064E670E080E090E00E947802E0E0F0E0BB
:100F2000EF2B09F4B3CE0E94F200882309F4AECE71
:100F30000E940000ABCE123021F01111E2CF8FE3FE
:100F4000B6CF8FE30ACF60E08CE00E94950161E0AC
:100F50008BE00E9495018AE00E94E10181E00E94FD
:100F600002048FE891E0D2CFA1E21A2EAA1BBB1B8C
:100F7000FD010DC0AA1FBB1FEE1FFF1FA217B30765
:100F8000E407F50720F0A21BB30BE40BF50B661F7B
:100F9000771F881F991F1A9469F76095709580953F
:100FA00090959B01AC01BD01CF010895EE0FFF1F8D
:0C0FB0000590F491E02D0994F894FFCF17
:100FBC00FF0000000028018800B5007501E600C4A0
:100FCC0000D8000000000010048800AB02AA022028
:100FDC0020202057454C2D434F4D452000534D4F5D
:100FEC004B4520444554454354494F4E0020202046
:100FFC00202053595354454D0053544154555320BC
:10100C002E2E2E2E0020534D4F4B455320414C4538
:10101C0052540020434F4E54524F4C4C45440053B5
:10102C00454E534F522056414C203D000D0A002096
:10103C002A4558484155535453204F4E2A200020DE
:10104C002A4558484155535453204F46462A0000D0
:00000001FF
